:020000040800F2
:1000000068050020C50000082D1E000841150008E5
:1000100000000000000000000000000000000000E0
:100020000000000000000000000000005928000847
:100030000000000000000000C52600085B28000842
:10004000D700000800000000D7000008D700000813
:10005000D700000879010008D7000008D700000881
:1000600000000000D7000008D7000008D7000008F3
:10007000D7000008D7000008D700000800000000E3
:10008000D70000080000000000000000D7000008B2
:1000900000000000D7000008D70000084515000840
:1000A00000000000C926000800000000512A0008D6
:1000B0000348854600F04EF800480047812A0008B2
:1000C000680500200448804704480047FEE7FEE733
:1000D000FEE7FEE7FEE7FEE7C9280008B1000008DA
:1000E00030B50B46014600202022012409E00D46D0
:1000F000D5409D4205D31D469540491B2546954058
:1001000040191546521E002DF1DC30BD03460B434D
:100110009B0703D009E008C9121F08C0042AFAD2BD
:1001200003E00B780370401C491C521EF9D2704743
:10013000D2B201E00270401C491EFBD2704700227F
:10014000F6E710B513460A4604461946FFF7F0FFD6
:10015000204610BD064C0125064E05E0E36807CC9D
:100160002B430C3C98471034B442F7D3FFF7A4FF5D
:10017000A02B0008C02B000810B5012000F036F8B5
:1001800010BD704770B50024014620314A78022A1C
:1001900003D004218163012416E0026813680E2550
:1001A000AB431360026813685B085B0013600122B5
:1001B000056C1346AB40C56B6B604A7000220A7039
:1001C000416B002900D08847204670BD31B500F052
:1001D000C3F8009C0546601C00D0641C00F0BCF80D
:1001E000401BA042FAD338BD7047000010B5044947
:1001F0004A69024202D04861FFF7F6FF10BD0000D5
:1002000000040140F8B500238DE001249C40A44681
:1002100022407DD04C68022C01D0122C0CD1DC087D
:10022000A40027183C6A5D07ED0E0F26AE40B443CC
:100230000E69AE4026433E6205685E000324B4406A
:100240000F79A543BF07BF0FB7402F4307604D6825
:10025000012D05D0022D03D0112D01D0122D0ED16C
:100260008568CF68A543B7402F43876047686546D8
:10027000AF430D79ED06ED0F9D403D434560C568E8
:10028000A5438C68B4402C43C4604C68E40049D555
:10029000284CA56901263543A561A4699D08344011
:1002A0000094254CAD002F19BC689D072E0F0F251B
:1002B000B540AC430925ED06A84201D100250FE069
:1002C0001E4DA84201D101250AE01D4DA84201D1D1
:1002D000022505E01B4DA84201D1032500E00525BC
:1002E000B5402543BD60184C25684E689543F6031C
:1002F00000D51543256065684E689543B60300D563
:1003000015436560A5684E689543F60202D500E086
:1003100008E01543A560E5684E689543B60200D530
:100320001543E5605B1C0A681446DC4000D06CE7AE
:10033000F8BD000000100240000001400004004829
:1003400000080048000C004800040140002A01D0C9
:100350008161704781627047014800687047000002
:100360002000002070B5024640325378202B1CD16B
:100370001378012B19D001231370242454700468BE
:1003800025689D432560046825681E03B5432560E4
:10039000046825680D432560006801681943016001
:1003A000202050700020107070BD022070BD70B50C
:1003B000024640325378202B1BD11378012B18D0E2
:1003C000012414702423537003681D68A5431D6025
:1003D00005682B680F263602B343090219432960CA
:1003E00000680168214301602020507000201070D7
:1003F00070BD022070BD704770B5194A04460029CF
:100400001AD0012917D104201070511CD07802F0A5
:1004100077FB012512496D062B460122491C204617
:1004200000F082F9002806D00D492B460122491C14
:10043000204600F079F970BD0220107008490023B1
:100440000122891C204600F027F90028F3D0044936
:1004500000230122891C204600F01EF970BD000017
:100460000000002070B503689A691968D40507D5A3
:100470000C0605D5446C01252C4344642C02DC6138
:10048000530508D50B0606D5436C08242343436463
:10049000E3010468E361920508D5090606D5416CBD
:1004A00002221143416411020268D161416C0B22A6
:1004B000114202D0416C01F01BF970BD02689169D4
:1004C0001268436B002B00D01847704710B50146E7
:1004D00040314A78202A01D0022010BD28224A70DB
:1004E00003494163042101F083F8002010BD00009E
:1004F000191B00087047000070B5040006D025469F
:10050000403568780026002802D005E0012070BD43
:100510002E70204600F052F8242068702068016890
:100520004908490001600F21606809068843216875
:10053000086121688A680120C00382438A60E168FB
:100540000129A16808D021229202114322689160FA
:10055000E168022902D005E00143F7E701212268A2
:10056000C902516021684A680F4B1A434A602168EA
:10057000CA688243CA60616920690843A1690902A7
:1005800008432168C860216AE0690843216808605F
:1005900020680168012211430160666420206870B0
:1005A0002663AE70002070BD0080000210B5FFF71A
:1005B0008DFF10BD704770477047704710B586B00B
:1005C000044614216846FFF7BAFD1749206888429F
:1005D00028D1164C616901204004014361616169C1
:1005E000014003200591400200901220019001205B
:1005F0000290032003900420049009206946C0065D
:10060000FFF700FEE169012040050143E161E16976
:100610000022014005911146172000F015F917201E
:1006200000F008F906B010BD005400400010024070
:1006300070B5174C0546207821468B7802280BD0E0
:10064000032814D005281FD006280FD162792179FC
:10065000E07802F077FA0DE0E370032009E00C493E
:1006600000230122891C284600F016F870BD237172
:1006700005202070064900230122891C284600F02D
:100680000BF80028EBD170BD63710620F1E7000084
:100690000000002070470000FFB505460F464035BA
:1006A000697881B0164604462820884338D1002F47
:1006B00036D0002E34D00621204600F06DFF287879
:1006C000012805D0012028706878292803D006E089
:1006D000022005B0F0BD0121204600F05DFF2A2078
:1006E00068702020A8700020606421684A68012397
:1006F000DB039A434A6067626685618D21850499B0
:10070000E1620849616321688A69D20301D4082241
:10071000CA6128700621204600F06AFF0020D8E751
:100720000120D6E7191B0008FFB505460F464035E6
:10073000697881B0164604462820884338D1002FB6
:1007400036D0002E34D00521204600F025FF287831
:10075000012805D00120287068782A2803D006E0F7
:10076000022005B0F0BD0221204600F015FF29202F
:1007700068702020A8700020606421684A68012306
:10078000DB039A434A6067626685618D218504991F
:10079000E1620849616321688A69D20301D50822B0
:1007A000CA6128700521204600F022FF0020D8E70A
:1007B0000120D6E7191B000802480168491C0160A6
:1007C000704700002000002010B506480168102284
:1007D00011430160002000F007F800F017F8002036
:1007E00010BD00000020024010B5044600F03AF9A8
:1007F0007D21C900FFF774FC00F0FCFD00222146BA
:10080000501E00F021F8002010BD000008B5084877
:100810008169012211438161816911400091C2699E
:1008200001040A43C261C0690840009008BD00008D
:1008300000100240C106C90E01208840014908602D
:100840007047000000E100E010B501F0F1FA10BDC2
:10085000F8B505460068354CC00352D5E06900265E
:10086000C00007D4E16920040143E161E16901406E
:10087000012600912E480168C90510D4016882152F
:1008800011430160FFF768FD074604E0FFF764FDD0
:10089000C01B642824D826480068C005F6D5206A05
:1008A00003273F02384020D06968394081421CD07C
:1008B000206A226AB843012109040A432262226A9B
:1008C0008A4322622062C0070FD0FFF745FD0090E7
:1008D00008E0FFF741FD0099411A1648814201D90D
:1008E0000320F8BD206A8007F3D5206A6968B84301
:1008F00008432062002E04D0E169012000078143F3
:10090000E1612878C00705D0206BA96880088000C5
:10091000084320632878800605D5206B1021884382
:10092000E968084320630020F8BD00000010024081
:100930000070004088130000F8B5054644480E4694
:100940000068C007C00FB0420AD241480168490898
:100950004900314301600068C007C00FB0425CD15C
:1009600028783C4C800705D56068F0218843A96849
:10097000084360602878C0073FD06868012813D01A
:100980002168022813D08907002946DA616889089E
:10099000890001436160FFF7DFFC696807460129B0
:1009A0000DD0022917D024E021688903ECE78901E2
:1009B000EAE7FFF7D1FCC11B2748814217D86068DE
:1009C0000007800F0128F4D117E0FFF7C5FCC11B19
:1009D000214881420BD860680007800F0228F4D1BB
:1009E0000BE0FFF7B9FCC11B1B48814201D9032072
:1009F000F8BD60680007800FF3D115480168C9078A
:100A0000C90FB1420BD9016849084900314301605F
:100A10000068C007C00FB04201D00120F8BD28789F
:100A2000400706D56068072109028843E968084342
:100A3000606000F01DF86168084A0906090F515C02
:100A4000C840074908600020FFF7CEFE0020F8BD2F
:100A5000002002400010024088130000902B000884
:100A60002400002001480068704700002400002096
:100A700010B513A30FCB88B06C460FC414A30FCBD3
:100A80000FC417494A680C20134603401548042B2D
:100A900002D0082B02D0401008B010BD93021B0FEB
:100AA0006C46E45CC96A04AB0907090F595CD203C0
:100AB00003D5FFF715FB6043EEE70B486043EBE718
:100AC00002030405060708090A0B0C0D0E0F10108F
:100AD0000102030405060708090A0B0C0D0E0F108E
:100AE000001002400024F40000093D00FEB5044659
:100AF0000078D04DC00747D068680007800F0128F4
:100B000007D068680007800F022809D16868C00311
:100B100006D52868800337D5606800287ED033E08A
:100B2000012062680004012A11D08100002A01D04E
:100B3000052A10D02A6882432A60286888432860E2
:100B40006068002814D0FFF707FC06460CE029680F
:100B500001432960F4E72A680A432A60F7E7FFF7B0
:100B6000FBFB801B64286FD828688003F7D50BE057
:100B7000FFF7F2FB064604E0FFF7EEFB801B64285C
:100B8000F1D828688003F7D4207801268007002850
:100B90003BDA68680007800F07D068680007800F9D
:100BA000022809D16868C00306D42868800715D5D3
:100BB000E068012832D111E0E0680028286815D0EB
:100BC00030432860FFF7C8FB074604E0FFF7C4FB8B
:100BD000C01B0228C7D828688007F7D52868F821E5
:100BE00088432169C900084328600EE0400840009E
:100BF0002860FFF7B1FB074604E0FFF7ADFBC01B21
:100C00000228B0D828688007F7D42078000724D5B8
:100C1000E0690028686A10D0304300E008E16862AB
:100C2000FFF79AFB074604E0FFF796FBC01B02287C
:100C300099D8686A8007F7D50FE0400840006862DD
:100C4000FFF78AFB074605E09DE0FFF785FBC01B29
:100C5000022888D8686A8007F7D4207804274007DC
:100C6000002860DA00200190E869C00008D4E96932
:100C7000B8060143E961E969014001200091019052
:100C80006D480168C90511D40168821511430160DE
:100C9000FFF762FB009005E0FFF75EFB0099401A4A
:100CA000642870D864480068C005F5D5A06801289C
:100CB0000AD0002801D0052810D0286A400840003A
:100CC0002862286AB84301E0286A30432862A06895
:100CD000002812D0FFF740FB00900AE0286A384352
:100CE0002862F1E7FFF738FB0099411A5348814227
:100CF00049D8286A8007F5D50DE0FFF72DFB009055
:100D000006E0FFF729FB0099411A4C4881423AD886
:100D1000286A8007F5D40198002804D0E9690120E9
:100D200000078143E9612078C00635D56069012854
:100D30000CD0401D686B23D038436863686B400853
:100D400040006863FFF708FB064622E0686B384303
:100D50006863686B30436863FFF7FEFA064604E099
:100D6000FFF7FAFA801B02285BD8686B8007F7D57B
:100D7000686BF8218843A169C900084368630BE0E8
:100D8000B8436863F4E74CE0FFF7E6FA801B0228FB
:100D900047D8686B8007F7D4206A002846D0696876
:100DA0000907890F022943D0012636060228286840
:100DB00005D0B0432860FFF7CFFA044633E0B043D4
:100DC0002860FFF7C9FA074604E0FFF7C5FAC01B21
:100DD000022826D828688001F7D4E86AE16A000969
:100DE00000010843E862616AA06A084369683D221D
:100DF0001204914308436860286830432860FFF775
:100E0000ABFA044604E0FFF7A7FA001B022808D853
:100E100028688001F7D509E0FFF79EFA001B022839
:100E200001D90320FEBD28688001F5D40020FEBD55
:100E30000120FEBD00100240007000408813000039
:100E400070470000F8B504460068426881684B06A8
:100E500005D4CB0703D0530601D5E16C04E08B0722
:100E600005D5130603D5216D20468847F8BDFF231D
:100E700061331942FAD09306F8D523464D06403324
:100E8000002D09DA5D7F032D3CD0256E0426354305
:100E90002566C568856800958E060125002E08DA4E
:100EA000266E2E4326668668009606684027BE4357
:100EB0000660C80506D5206E082108432066206814
:100EC00080680090206E0028D0D020684168E0261D
:100ED000B14341605D77900718D020684168890868
:100EE00089004160A06D0B4D002803D04563A06DC3
:100EF000FFF748F9606D0028B8D04563606DFFF7D3
:100F000041F9F8BDC16880680090F8BD2046FFF740
:100F100097FFF8BDD9260008F8B5040007D00026D1
:100F200025464035A662687F002802D005E00120F2
:100F3000F8BD2E77204600F04BF802236B7720682F
:100F400001684022914301600721E068090288425C
:100F500001D9002201E0012212030F273F02B8420B
:100F600002D0884200D0A662276B002F05D18842AC
:100F700001D9236301E001202063A16860686369EF
:100F800008432169194308430123A1695B02194001
:100F90000843E1690843216A0843A16A08432168BC
:100FA0000860616B606AA36908431B0C0427E16851
:100FB0003B40194308432168104348602068C169D9
:100FC0007A029143C1612666012068770020F8BD4E
:100FD00010B586B0044614216846FFF7B0F81549ED
:100FE0002068884224D11448826981140A438261AE
:100FF00082690A400592426949010A434261406997
:1010000008400590E020009002200190002103207C
:1010100003900291049109206946C006FFF7F2F897
:10102000002211461920FFF70FFC1920FFF702FCE0
:1010300006B010BD0030014000100240FFB506466A
:1010400004464036307F002781B00D46012809D084
:1010500001203077FFF780F90090707F012804D0DD
:1010600002279DE0022005B0F0BD002D72D003984C
:1010700000286FD00320707700202066A5630399B5
:10108000A1870399E1872064B080F0802065E06447
:101090000121A068C903884205D1206801680122A6
:1010A00092031143016020680168490603D4016876
:1010B0004022114301600720E1680002814260681C
:1010C00023D9002802D0E08F01281AD1216828886E
:1010D000C86005E020688168890706D52988C16055
:1010E000E08F401EE087AD1C0BE0049800283ED046
:1010F000401C06D0FFF730F90099411A049881424C
:1011000035D2E08F0028E5D136E0002802D0E08F0C
:1011100001282ED1E08F012803D921682888C860D2
:101120000CE02168287808730FE02068816889073F
:1011300011D5E18F012906D92988C160E08F801E71
:10114000E087AD1C15E029780173E08F401EE08731
:101150006D1C0EE023E00498002808D0401C08D045
:10116000FFF7FAF80099411A0498814201D3032746
:1011700016E0E08F0028D8D12046009A049901F0AB
:10118000B4FA002801D020202066A068002803D1EE
:101190002068C16880680090206E002800D0012778
:1011A000012070770020307738465CE7FFB50446B1
:1011B00083B00120254640350090287F00270E4649
:1011C00001280FD001202877FFF7C6F80190687F2B
:1011D000616801280DD0CA1FFD3A08D1A168002915
:1011E00005D102E0022007B0F0BD042801D002279B
:1011F000FAE0002E7CD005980028FBD00698002845
:10120000F8D0687F042801D0052068770020206688
:10121000059921640699E9800699A980A663069933
:10122000E1870699A187E06420650723E1681B0236
:10123000994202D8E888012806D92068426801212D
:1012400009038A43426005E02068416801221203D5
:101250001143416020680168490603D401684022B7
:1012600011430160E1686068994242D9002802D0C8
:10127000E08F012835D121683088C860E08F401E9A
:10128000E087B61C2DE0009800280ED0E08F0028E3
:101290000BD020688168890707D53188C160E08F4D
:1012A000401EE0870020B61C0090E88800280ED081
:1012B00020688168C9070AD0C06805990880059828
:1012C000801C0590E888401EE880012000900C9862
:1012D000401C06D0FFF740F80199411A0C98814252
:1012E0006DD2E08F0028CED1E8880028CBD16EE007
:1012F00079E0002802D0E08F012862D1E08F012838
:1013000007D921683088C860E08F801EE087B61C4E
:1013100057E0216830780873E08F401EE087761C24
:101320004FE00098002818D0E08F002815D02068E2
:101330008168890711D5E18F012906D93188C160FB
:10134000E08F801EE087B61C05E031780173E08FE6
:10135000401EE087761C00200090E888002824D0FA
:1013600020688168C90720D0E988012912D9C0689E
:10137000059908800598801C0590E888801EE88003
:10138000E88801280FD82068416801221203114320
:10139000416008E0017B059801700598401C0590AC
:1013A000E888401EE880012000900C98401C08D07E
:1013B000FEF7D2FF0199401A0C99884201D3032706
:1013C00012E0E08F0028ACD1E8880028A9D120469F
:1013D000019A0C9901F089F9002801D0202020669B
:1013E000206E002800D00127012068770020287790
:1013F0003846F8E6094910B5401E884201D9012057
:1014000010BD074C60610321081F00F011FD002092
:10141000A06107202061002010BD0000FFFFFF0039
:1014200000E000E070470000F8B503680446D969A1
:1014300018680D072D0F07D18A0605D5820603D53A
:10144000204601F095FAF8BD9A68002D64D0D507C2
:10145000ED0FFF26213606402E435DD0CE0706D085
:10146000C60504D501261E62E36E3343E3668F078B
:1014700002230426002F06DAD70704D027683B6230
:10148000E76E3743E7664F0706D5D20704D02268D8
:101490001662E26E1A43E2660A0709D5202202406C
:1014A0002A4305D0236808221A62E36E1343E366D9
:1014B000E26E002AC7D0890604D5800602D52046F0
:1014C00001F056FAE06E000703D4206880684006F9
:1014D0001CD5204601F030FA20688168490611D5F4
:1014E0008168402291438160606E00280AD01249D1
:1014F0004163606EFEF746FE0028A4D0606E416B2B
:101500008847F8BD2046FFF78DFFF8BD2046FFF75E
:1015100089FF0020E066F8BD0A0605D5020603D55E
:10152000204601F062FAF8BD4906FCD54006FAD51E
:10153000204601F010FAF8BD2529000870477047D1
:10154000FEE7000010B50648006880694005400FBE
:10155000034802D0FEF786FF10BDFEF7AFFF10BDB7
:101560004800002010B5406A01684A680123DB0387
:101570001A434A60826B00215163C26B516301467A
:1015800040314A78602A02D0FEF7B4FF10BD202215
:101590004A70FEF730FF10BDF0B503460022CE07BB
:1015A00040332824B025002E05D05E7842222746FD
:1015B000B74300D0F2228E0705D544265B7832432C
:1015C0009C4300D02A434B0701D5B8231A4311236B
:1015D0008B4301D190231A4312238B4301D1602105
:1015E0000A4300680168914301600020F0BD0000DB
:1015F00070B5164D1223446B002220268B43AC425B
:1016000002D0134DAC420DD14C0700D5B8221124A5
:101610008C4301D190210A43002B11D13243402148
:101620000A430DE04C0700D5B822CC0701D0F224C4
:101630002243890701D5F4210A43002B00D132430C
:101640000068016811430160002070BDEF190008B7
:10165000B11A000801688A69D243920701D40022B6
:101660008A6200688169C943C90703D08169012280
:10167000114381617047F8B50546044640356878E6
:1016800028218143206804D00821C16100202870EE
:10169000F8BD8169C903CF0F8169FE230E0C8168F3
:1016A0001E408A05C168920D19408C46E1680229E6
:1016B00012D10621D3090E400B409E420BD1A16CE2
:1016C000491CA164A16C0229E2D10021A164082374
:1016D000C361297007E0664604212046FFF75CFFDE
:1016E00000202870324639462046FEF785FEF8BDB8
:1016F000F8B50026054640350446AE702C48E06239
:101700006685606C0843606468782027282823D0A9
:101710006878292820D068782A281DD007212046FB
:10172000FFF73AFF6878602800D06F702663666321
:10173000206801684A041F49026817D501239B03EA
:101740009A430260A06B41632E70A06BFEF71AFDF6
:1017500000281DD0A06B19E003212046FFF71CFFD5
:1017600028206870266314486063E1E7120410D5EE
:1017700002680123DB039A430260E06B41632E7031
:10178000E06BFEF7FFFC002802D0E06B416B88475E
:10179000F8BD6878602804D02E702046FEF7AAFEB7
:1017A000F8BD6F702E702046FEF725FEF8BD0000D4
:1017B0000000FFFF65150008191B000870B50446FE
:1017C0001548E06200252563202220464030064669
:1017D000427085706563480711D52068416A606A68
:1017E000421C62620170208D002808D0401E2085B6
:1017F000608D401E6085606C042108436064072191
:101800002046FFF7C9FE21681020C86135702046C8
:10181000FEF7CCFE70BD00000000FFFFF8B50646E5
:1018200000682027C76130684268224B1A40426036
:101830000025356320487563F062C80606D5316817
:101840001020C861706C0421084370643046FFF7B3
:1018500001FF03213046FFF79FFE706C002814D172
:1018600034464034607860280FD06078212811D049
:101870006078222808D16770A078A570402825706C
:10188000304614D0FEF796FEF8BD716C3046FFF777
:101890002FFFF8BD6770A078A570402825703046EE
:1018A00002D0FEF788FEF8BDFEF787FEF8BDFEF712
:1018B00083FEF8BD00E800FE0000FFFFF8B5044617
:1018C000006820260F46C66121680820C8610721EC
:1018D0002046FFF761FE20684168B2021143416073
:1018E000206841682D4A114041602046FFF7B2FE52
:1018F00020680168254649044035002902DB01685B
:10190000090406D5697821292FD0E16B0968496857
:101910006185628D0421002A02D0626C0A436264F0
:101920007A070FD5426A606A431C63620270208D99
:10193000002807D0401E2085608D401E6085606CA9
:101940000843606400202063A8706063616C002914
:101950000DD0616C2046FFF7CBFE6878282803D1B4
:1019600039462046FFF72AFFF8BDA16BCEE7E26AB1
:101970000B498A4206D0E1626E7028702046FEF75D
:1019800015FEF8BD69786E7022292870204602D0B5
:10199000FEF780FEF8BDFEF74BFEF8BD00E800FE46
:1019A0000000FFFF70B50026044640340546A670CF
:1019B0006178282029290ED061782A290AD16070FF
:1019C0002220286302212846FFF7E6FD26702846DC
:1019D000FEF72EFE70BD607021202863012128468D
:1019E000FFF7DAFD26702846FEF754FE70BDF8B505
:1019F0000546044640352878012816D00120287075
:101A0000C8060026002812DAD00610D5216810205A
:101A1000C861606C04210843606412212046FFF70E
:101A2000E7FD2046FFF716FE3FE00220F8BD08065E
:101A300034D5500632D520680168402291430160B8
:101A4000608D002825D0206840688105608D890D53
:101A5000FF2803D9FF202085930403E0608D012334
:101A600020855B060096208DC2B2204600F0E0F88B
:101A7000608D218D401A6085687822282068016871
:101A800004D001229203114301600EE00122D2032F
:101A9000F9E740212046FFF72BFE06E0880604D533
:101AA000900602D52046FFF7B9FE2E700020F8BD43
:101AB00010B5044640342378012B15D00123237040
:101AC000CB0618D5D30616D5617821290ED0C16B67
:101AD00009684968102200290AD00168CA61416C6E
:101AE00004221143416414E0022010BD816BEFE732
:101AF0000068C2610DE00B0705D5130703D5006828
:101B00000821C16105E08B0603D5920601D5FFF7D8
:101B1000D5FE0020207010BDF8B5054604464035BE
:101B2000287816460F46012811D0012028703F4919
:101B3000F8062DD5F0062BD5628D1020002A08D08E
:101B40002168C861606C04210843606462E002207F
:101B5000F8BDE36A01225206934202D0E36A93423F
:101B600002D16A78282A08D0E26A8A4202D06978CB
:101B7000292907D02168C8614CE039462046FFF783
:101B80001DFE47E02168C8612046FFF763FD3EE087
:101B9000780717D5700715D5608D00280BD0206801
:101BA000426A606A431C63620270208D401E208579
:101BB000608D401E6085608D00282BD1E06A8842D0
:101BC00025D127E0380706D5300704D53946204609
:101BD000FFF751FD1EE0B8071CD5B0071AD5608D80
:101BE00000280CD0606A411C61622168007888621C
:101BF000608D401E6085208D401E20850AE0E06AD1
:101C000001210906884202D0E06A002802D120465C
:101C1000FFF7C8FEB80605D5B00603D539462046FD
:101C2000FFF74CFE00202870F8BD00000000FFFF09
:101C300070B50568049C68688905890D1204044E16
:101C400011431943304021430143696070BD0000D6
:101C5000009800FC3EB515460C0002D029781229E8
:101C600001D204203EBD302121706070A21C0221EF
:101C7000204600F033F90028F4D1012100902246DB
:101C8000029101902B460421104600F002FB3EBD5C
:101C900038B514460D0001D0102C01D2062038BDF5
:101CA000A02269460A70487001220221684600F0AD
:101CB00009FA0028F3D101222146284600F002FA51
:101CC00038BD0000F0B587B014216846FEF737FA3A
:101CD00026484269012189050A43426142690A4056
:101CE0000592426949110A43426142690A400592DC
:101CF000426949000A434261406903240840059053
:101D00001B4800256A4631C20927FF066946384646
:101D1000FEF778FA17480126009069460196029569
:101D200003943846FEF76EFA1348144F0190694643
:101D3000009602953846FEF765FA02200090694643
:101D4000019602953846FEF75DFAF8206A4631C2E0
:101D500069463846FEF756FA002211460520FEF77E
:101D600073FD0520FEF766FD07B0F0BD00100240D0
:101D70000319000002800000000011100004004858
:101D800010B5154813490160144941606421816010
:101D90000121C1600021016141610122D204816100
:101DA000C2610162FEF7A8FB002801D0FEF7E9F945
:101DB00000210948FEF7D6FA002801D0FEF7E1F924
:101DC00000210548FEF7F3FA002801D0FEF7D9F903
:101DD00010BD000000540040480000200E09002003
:101DE00010B511480F490160FF2105314160002104
:101DF0000722816012020161C26001224161520228
:101E00008261016210224162C26181620722C26264
:101E1000016308214163FFF77FF8002801D0FEF736
:101E2000B0F910BD00300140940000207047000060
:101E30008307FF22DB0E9A408907090E994000288C
:101E40000BDA0007000F0838830808489B001818B1
:101E5000C36993430B43C3617047830804489B00E5
:101E60001B181868904308431860704700ED00E0A5
:101E700000E400E010B5282000F068F9C1438907AC
:101E800004D003210143282000F014FA10BD70B5DE
:101E900088B00C466D46287510216C75002005AC85
:101EA000155C2618401CC0B2B5700628F8D3002077
:101EB0001A182518401C5278C0B22A720428F7D389
:101EC0000020019002900390049000900C23224681
:101ED0000E2000F044F808B070BD000070B50E464A
:101EE000044615460021022000F0E4F904210A20EE
:101EF00000F0E0F98021142000F0C0F922463146BC
:101F0000122000F0FDF90321022000F0D3F90D4C5E
:101F10000A2000F01BF9400705D4641E2404240C99
:101F2000F6D1032070BD0021022000F0C3F9442047
:101F300000F00CF92870422000F008F968700020C9
:101F400070BD00008813000070B50C46054600F017
:101F5000FDF8A0430146284600F0ACF970BDFFB57E
:101F600081B00E460AA9B0C9002F01D0387800E030
:101F700000200D9909010818C0B20090002102202C
:101F800000F098F97F21082000F094F980211420B6
:101F900000F074F91220039A049900F0B1F91A20A4
:101FA000009900F087F90220019900F083F9019867
:101FB0000C2803D180211A2000F060F964200090E1
:101FC000082000F0C3F8304202D1C0070ED109E06A
:101FD0000C2000F0BBF813210842009008D001202B
:101FE00005B0F0BD0098401E0090E9D10320F7E74E
:101FF000002C18D0002D16D0142000F0A7F82A7855
:1020000001468A4201D20420EAE7297022461220C2
:102010000D9B00F0C5F8182000F098F84607760FE1
:10202000002F00D03E700098000701D50220D7E7AE
:10203000002C27D0002D25D00E98002822D02878FB
:10204000012804D002281BD3002E19D103E0042E4E
:1020500016D10820C4E7801EC1B26A462046FFF7A9
:102060003DFF0028BCD12878A11E6A46415C127849
:10207000914205D1641E6946005D4978884201D0CD
:102080000720ADE70020ABE710B500F0E9F88021AC
:10209000542000F00FF9A921562000F00BF903217C
:1020A000582000F007F9E8215A2000F003F94021F8
:1020B0002A2000F0FFF83D21222000F0FBF8FFF776
:1020C000D9FE10BD70B58CB015460C46002801D065
:1020D000102C02D906200CB070BD0A46014605A896
:1020E000FEF714F805AE321921463046FFF7F6FE2A
:1020F0000028F0D1122008AA107200201073A41C2E
:10210000E3B20BAA0AAC039002920490302100962D
:10211000019405AA0C20FFF722FF002D01D003280F
:1021200011D00028D7D108A8007A012803D108A827
:10213000007B042801D00120CDE76846007D0A28F5
:1021400001D00820C7E70020C5E700007FB57E2149
:102150000840694680300871002008720E4D024622
:1021600002212846FEF7F2F80024E4432346012228
:1021700001A90A48FEF762FF012303AA02A9074842
:102180000094FFF713F8012202212846FEF7DEF83B
:102190006946087B04B070BD00040048940000202C
:1021A000FFB587B016460D0054D0002269460A7468
:1021B0007E21084069468030087314460221264873
:1021C000FEF7C4F86D1E0023EFB2DB43012203A922
:1021D0002248FEF733FF002F02D82DE0002C1ED13D
:1021E0000A9800281BD00025012205E011468140F5
:1021F0002943401CCDB2C0B20728F7D90020C04304
:102200000090012302AA03A91448FEF7CFFF6946F4
:10221000305D097AA84329400843307008E0002067
:10222000C04300903219012303A90C48FEF7BEFFFA
:10223000641CE4B2BC42D1D30020C04300903219E8
:10224000012304A90548FEF7B1FF0122022102483B
:10225000FEF77CF80BB0F0BD0004004894000020AD
:1022600010B50F21022000F025F83220FDF7AEFF57
:102270000220FFF76BFFC006FAD410BD70B50D4603
:102280000446FFF763FF28430146204600F012F89A
:1022900070BDF0B585B00C460AA9E0C904976F4639
:1022A0006CC70246302123460C20FFF758FE05B0CC
:1022B000F0BD000033B5104D044681B0002202216C
:1022C0002846FEF743F87E20044068460470002448
:1022D000E4432346012269460848FEF7AFFE234641
:1022E000012202A90548FEF7A9FE01220221284683
:1022F000FEF72CF83EBD00000004004894000020CA
:10230000F8B516460D460446002202211048FEF795
:102310001DF87E200440684600270470FF433B46BA
:10232000012269460B48FEF789FE002407E03119B7
:102330003B4601220748FEF781FE641CE4B2AC4232
:10234000F5D3012202210248FEF700F8F8BD000093
:1023500000040048940000201CB502206946087063
:1023600001A800F05FF8002803D0022801D0002067
:102370001CBD01201CBD37B584B014460D0002D031
:102380002078022802D2042007B030BD80211C2012
:10239000FFF7DAFD072069460873002003A90190C2
:1023A0000091029023462A46012104A8FFF771FFFD
:1023B0000028E9D12078022803D16846007B002854
:1023C000E2D00120E0E7000038B50446C017800FD6
:1023D0000019800880000D46C01CC1B2094B602066
:1023E000FFF755FD002801D0032038BD12206946B3
:1023F0000870E0B26A462946FFF72CFC0028F4D0AA
:10240000042038BD2800002010B50021044800F049
:1024100010F8002801D0002010BD012010BD0000E0
:10242000280000200A4610B501465220FFF7A3FFFE
:1024300010BDF3B505468BB0012008900C985028CC
:1024400002D906200DB0F0BD80211C20FFF77CFDD5
:1024500004E002280DD003287DD12CE093206946AA
:1024600008730C98002600280FD0287804280AD872
:102470000BE09520694608730C980326002804D0C9
:102480002878072801D9012200E000220C98F100E9
:10249000401A0221C4B2002A03D0882069468873FA
:1024A0000321E008630700D00123C0181DD0002AD3
:1024B00006D0032305E09720694608730626E4E763
:1024C0000423984200D9184600239C4603AB09E038
:1024D000F7197F197F785F54491C67467F1CFFB24C
:1024E000C9B2BC4667468445F2D3002A01D00834FD
:1024F000E4B2202C1CD3702168464173817BC07BE1
:1025000003AF41406846027C407C424051406846EF
:10251000817407213846FA1DFFF7E0FC002891D1AD
:10252000694608760920099003200877BF1D15E049
:102530006107E008490F801C02016B4652181976AA
:102540005A73002900D001210918099103A90F1815
:102550000921081A00E041E019461877087E00902A
:1025600001010818C1B21A20FFF7A4FE0099002249
:1025700006A802920191009007AB3A4603A8099978
:10258000FFF787FE02281CD00028C8D1202C3FD39B
:102590006846807B88283DD0022188283CD00422D0
:1025A000002003AB34185B5C6419491C401CC0B2AA
:1025B0006370C9B29042F4D36846007F032831D1DA
:1025C0002CE01C20FFF7C2FD810601D5022039E76F
:1025D000C006C00E00D12020A04201D8052031E75E
:1025E0000446401EC117490F0918C908C900401AFE
:1025F000C1B2E208002901D0012000E0002010183B
:1026000003AA401C135C01278F403B43135470E71F
:10261000202470E70321C0E70322C1E76846007E5B
:10262000002801D001200DE703AA0232012138461B
:10263000FFF754FC0028CAD16846807B797888422D
:1026400004D16846C07BB978884201D00720F9E6FA
:102650003878400707D50898401CC0B20890012878
:1026600000D1FBE6F5E63878E8720898410040189A
:10267000401C28700020E5E670B50446C017800FA6
:10268000001980088000C01C0D46022C06DD0123C5
:10269000A1079B07D94201D1022070BDC1B2084BEE
:1026A0006020FFF7F4FB002801D0032070BDE0B2EA
:1026B00010222946FFF7ECFA0028F7D0042070BD5D
:1026C000280000207047000010B50248FEF7BAFB52
:1026D00010BD00009400002010B5406A0021462281
:1026E0001152C187FEF7ACFB10BDF8B50F460B4683
:1026F00015460092032104460022C90200F01BF88F
:102700002026002812D13B46002280212046009539
:1027100000F05CF8002809D103213B460022490261
:102720002046009500F007F8002803D0206E3043C3
:1027300020660320F8BDF8B51D4617460E46044630
:102740003DE0032149028E4205D1002F03D1017BD8
:10275000684601700078681C31D0002D05D0FDF767
:10276000FBFD0699401AA84229D320684168E0225F
:10277000914341606068C11FFD390CD10121A068FF
:10278000C903884202D04911884204D120680168F7
:102790004022914301600120A16A4003814207D198
:1027A00021680A6882430A6021680A6802430A6055
:1027B000012040346077002020770320F8BD206896
:1027C00081683140B942BCD10020F8BDF8B51D4642
:1027D00017460E46044633E0681C31D0002D05D064
:1027E000FDF7BAFD0699401AA84229D3206841682E
:1027F000E022914341606068C11FFD390CD1012185
:10280000A068C903884202D04911884204D12068D7
:1028100001684022914301600120A16A4003814286
:1028200007D121680A6882430A6021680A68024366
:102830000A60012040346077002020770320F8BD33
:10284000206881683046884304D00020B842C3D154
:102850000020F8BD0120F9E7704710B5FDF7ACFF87
:1028600010BD30B595B030216846FDF768FC0024F6
:102870000F940320009001200D9410941294019065
:1028800003900E941394102004900003099080008C
:102890000C9402250A90119408950B946846FEF753
:1028A00025F907200C900E9401210D950F940CA88A
:1028B000FEF742F8212010901294139410A8FDF70F
:1028C000C7FF15B030BD0000134801680122114355
:1028D00001604168114A114041600168104A11408D
:1028E00001600168012292049143016041683F2226
:1028F000120491434160C16A09090901C162016B77
:10290000FF22143291430163416B4908490041633E
:102910000021816070470000001002400CB8FF08E1
:10292000FFFFF6FE10B5406A0022014640314A839F
:102930004A82FEF777FD10BD01680A68FF23213344
:102940009A430A6001688A68520852008A6020210E
:1029500060308172704710B501680A6840239A435D
:102960000A60202269210A54FEF7E9FD002010BD0B
:1029700070B50246403203466033948B9D7A0168FD
:10298000222D05D08869082210438861022070BD7D
:10299000898C012685683603B54202D10569002D70
:1029A0000BD02140446D651C45652170518B491E3B
:1029B0000904090C518307D015E0456D2140298099
:1029C000416D891C4165F1E701680A68FF242134E3
:1029D000A2430A6001688A68520852008A60202176
:1029E0009972FEF7ABFD002070BD6921095C2129B9
:1029F00001D00220704702464032518A002912D08D
:102A0000012381681B03994202D10169002915D075
:102A1000C16C4B1CC364006809780185508A401E54
:102A200050820020704701680A6880239A430A6038
:102A300000680168402211430160F2E7C16C03683D
:102A40000988C905C90D1985C16C891CC164E5E7F0
:102A500010B50248FEF7E8FC10BD0000F8000020A9
:102A600002E008C8121F08C1002AFAD17047704757
:102A7000002001E001C1121F002AFBD170470000B5
:102A8000FDF7A2FEFFF7EDFEFFF71CF9FFF778F95F
:102A9000FFF7A6F9FFF7F8FA6420FDF797FBFFF7B9
:102AA000F3FA1448FDF712FD134C25460D35FFF7D8
:102AB00053FCA0710028FAD0FFF7A6FC0E4A0F497C
:102AC000D21D2079FFF780FC0C4900200A5C2A54B3
:102AD000401CC0B21028F9D3E0780328E7D161790F
:102AE000A078054A6854D21D911D2079FFF7C4FDD6
:102AF0006070DCE748000020000000203400002067
:102B000070B50E4D0C4600280FD0012810D00228B9
:102B10000AD1FFF779FCEA1D09492879FFF754FC2F
:102B200007486979405C207070BDA879087070BD55
:102B3000034829790C3840184078F4E70000002059
:102B400034000020F8B51C4615460F460646FFF730
:102B50005BFC0D4A0D493846FFF736FC0A48002158
:102B60000A4A801D535C4354491CC9B21029F9D349
:102B7000032E08D1044A4455911D3846FFF77CFDC9
:102B80000149C91F4870F8BD07000020340000202B
:102B9000000000000000000001020304060708090D
:102BA000C02B00080000002028000000602A000858
:102BB000E82B00082800002040050000702A0008CB
:102BC00000000000000000FFFFFFFFFFFF202020AB
:102BD0002020202020202020202020202000000055
:082BE0000000000000127A0061
:04000005080000B13E
:00000001FF
